:0300000002068F66
:0C068F00787FE4F6D8FD7581710206D674
:10071B00E4FAEF6405703343F620C2F8C2F9D2FA5B
:10072B0043E180C2FCD2FBADF8EDC413135403FDBF
:10073B00AFE2AB07EB7E007802C333CE33CED8F9F2
:10074B007C002DFBEC3EAF03FE22EF6406703443BE
:10075B00F640D2F8C2F9D2FA43E180C2FCD2FBAD2B
:10076B00F8EDC413135403FDAFE27A00AB07EB7E35
:10077B00007802C333CE33CED8F97C002DFBEC3E90
:03078B00FEAF03BB
:01078E002248
:10000E0075DCC075650075661DE565F5D1E566F5AF
:02001E00D922E5
:100A6B00EF1460191460251460312403703B756515
:100A7B000075660DE565F5D2E566F5DA227565015B
:100A8B00756600E565F5D3E566F5DB2275650075E2
:100A9B006680E565F5D5E566F5DD2275650075665D
:0A0AAB0040E565F5D6E566F5DE22AC
:08000300E4FF120A6B02000E7B
:03045B000171012B
:020BFA008F0E5C
:100BFC00C2A07F647E00120D07D2A07F967E0012E9
:100C0C000D07E4F50FE50FC3950E5016D2A17F1416
:100C1C007E00120DA8C2A17F147E00120DA8050F34
:020C2C0080E363
:010C2E0022A3
:100D5F00C294C2A1C2A07F5E7E01120DA8D2A07F55
:090D6F005E7E01120DA8D294224F
:1009C600E57124FE602F04704BD2947F0E120BFA51
:1009D6007F3C7E00120D447F12120BFA7F327E009E
:1009E600120D447F0B120BFA7F467E00120D44C295
:1009F6009475710222D2947F0E120BFA7F237E0029
:100A0600120D447F0C120BFA7F3C7E00120D44C27D
:050A160094757101223E
:100E1300D2947F06120BFA7F507E00120D44C294C7
:010E230022AC
:100E2400D2947F02120BFA7F5A7E00120D44C294B0
:010E3400229B
:100E3500D2947F1B120BFA7F8C7E00120D44C29454
:010E4500228A
:100E4600D2947F03120BFA7FB47E00120D44C29433
:010E56002279
:100DD800D2947F16120BFA7FB47E00120D44C2948F
:070DE8007F147E00020D44A0
:100E5700D2947F17120BFA7F3C7E00120D44C29486
:010E67002268
:100D2700D2947F18120BFA7F3C7E00120D447F0D80
:0D0D3700120BFA7F507E00120D44C2942270
:100E6800D2947F13120BFA7F507E00120D44C29465
:010E78002257
:100AB500120E017F01120CB9C299C298D2ACD2A90B
:100AC500D2BCD2AFC207C218120D5FC294D284D273
:100AD50083D290C210D287D20BD2A7C29375560685
:100AE500D2A2D2A3D2A6D212C281D285D282D21DDF
:080AF500120E8A120EAE80FB06
:100D4400EF1FAA0670011E4A60107C137D88ED1DFA
:0A0D5400AA0470011C4A60E880F454
:010D5E002272
:100D7800E4FDFCC3ED9FEC9E500DE4FB0BBB15FCA2
:070D88000DBD00010C80EC21
:010D8F002241
:100D9000E4FDFCC3ED9FEC9E500DE4FB0BBB1AFC85
:070DA0000DBD00010C80EC09
:010DA7002229
:100D0700E4FDFCC3ED9FEC9E5015E4FBFA0BBB0022
:0F0D1700010AEB64644A70F50DBD00010C80E425
:010D260022AA
:100DA800E4FDFCC3ED9FEC9E500DE4FB0BBB04FC83
:070DB8000DBD00010C80ECF1
:010DBF002211
:100C6100E4FDE4FEFF0FBF00010EBE0BF8BFB8F5B7
:100C71000DBD32EEE4FD309212E4FEFF0FBF000124
:0B0C81000EBE2EF8BFE0F50DBD32EBFB
:010C8C002245
:100C8D00E4FDE4FEFF0FBF00010EBE0BF8BFB8F58B
:100C9D000DBD32EEE4FD309212E4FEFF0FBF0001F8
:0B0CAD000EBE3AF8BF98F50DBD32EB0B
:010CB8002219
:09045E000710000000000000007E
:100AFD007519AAE4F518E4F517E519C2907F507E33
:100B0D0000120D78D290E51925E0F5197F967E003B
:100B1D00120D780517E517C3940840DD7519AA7FE6
:100B2D00507E00120D780518E518C3940340C7D206
:010B3D009027
:010B3E002294
:100B3F00751CAAE4F51BE4F51AE51CC2907F507EE4
:100B4F0000120D78D290E51C25E0F51C7F967E00F3
:100B5F00120D78051AE51AC3940840DD751CAA7F9B
:100B6F00507E00120D78051BE51BC3940340C7D2BE
:010B7F0090E5
:010B80002252
:100B8100751FAAE4F51EE4F51DE51FC2907F507E96
:100B910000120D78D290E51F25E0F51F7F967E00AB
:100BA100120D78051DE51DC3940840DD751FAA7F50
:100BB100507E00120D78051EE51EC3940340C7D276
:010BC10090A3
:010BC2002210
:10078F00D293D2A6C2A77510C87511E07512C11207
:10079F000B3FE4F567E4F56874102567F8E630E77A
:1007AF0006C2907F788004C2907F507E00120D9019
:1007BF00D29074102567F8C000E625E0D000F67FD0
:1007CF00327E00120D900568E568C3940840C90594
:0E07DF0067E567C3940340BDD2A7C293D2A6BC
:0107ED0022E9
:1007EE00D293C2A6C2A77510C87511E07512C212B7
:1007FE000B3FE4F569E4F56A74102569F8E630E715
:10080E0006C2907F788004C2907F507E00120D90B9
:10081E00D29074102569F8C000E625E0D000F67F6E
:10082E00327E00120D90056AE56AC3940840C90530
:0E083E0069E569C3940340BDD2A7D2A6C29358
:01084C002289
:10084D00D293C2A6C2A77510C87511E07512C31256
:10085D000AFDE4F56BE4F56C7410256BF8E630E7F2
:10086D0006C2907F788004C2907F507E00120D905A
:10087D00D2907410256BF8C000E625E0D000F67F0D
:10088D00327E00120D90056CE56CC3940840C905CD
:0E089D006BE56BC3940340BDD2A7D2A6C293F5
:0108AB00222A
:1008AC00D293C2A6C2A77510C87511E07512C412F6
:1008BC000B81E4F56DE4F56E7410256DF8E630E708
:1008CC0006C2907F788004C2907F507E00120D90FB
:1008DC00D2907410256DF8C000E625E0D000F67FAC
:1008EC00327E00120D90056EE56EC3940840C9056A
:0E08FC006DE56DC3940340BDD2A7D2A6C29392
:01090A0022CA
:10090B00D293C2A6C2A77510C87511E07512C51295
:10091B000B81E4F56FE4F5707410256FF8E630E7A2
:10092B0006C2907F788004C2907F507E00120D909B
:10093B00D2907410256FF8C000E625E0D000F67F4A
:10094B00327E00120D900570E570C3940840C90506
:0E095B006FE56FC3940340BDD2A7D2A6C2932E
:01096900226B
:10096A0020910D0560E560B47803E4F560C20022C9
:10097A00200038D200E560D394234012E560D39476
:10098A0050500BE52E25E0F52E532EFE8010E56023
:10099A00D394504010E52E25E0F52E432E01054153
:1009AA00E4F55F8002055FE4F56022055FE55FC359
:0C09BA00943C4007E4F541D200F53922DE
:100BC300E54164087030F54174322539F8A62EE505
:100BD300397009E532B4C80475390122E539B40125
:100BE30009E533B4E00475390222E539B40204D2CD
:070BF300088000E4F539223F
:100A1B007510C87511E07512C1E4F50CE4F50D7491
:100A2B0010250CF8E630E706C2A37FB08004C2A302
:100A3B007F757E00120D90D2A37410250CF8C000A8
:100A4B00E625E0D000F67F4A7E00120D90050DE5FD
:0F0A5B000DC3940840C9050CE50CC3940340BDBE
:010A6A002269
:100534008E0C8F0DC3E50D94F3E50C9403400CD29F
:10054400947F1C120BFA7F3C0205D1C3E50D94F293
:10055400E50C94035016C3E50D94DAE50C940340BE
:100564000BD2947F0A120BFA7F648061C3E50D9469
:10057400D9E50C94035016C3E50D94CBE50C940314
:10058400400BD2947F09120BFA7F648040C3E50DBF
:1005940094CAE50C94035016C3E50D94B0E50C948D
:1005A40003400BD2947F08120BFA7F64801FC3E5CB
:1005B4000D94AFE50C9403501CC3E50D9497E50C22
:1005C40094034011D2947F07120BFA7F647E0012C9
:1005D4000D44C29422C3E50D9495E50C9403500593
:0605E400120E13D21D22CD
:100E7900120A1BD2A2C2A3120C61D2A2D2A3C285AA
:010E89002246
:0E0E8A00D285C2A2D2A3120C8DD2A2D2A32274
:100C2F00C218C207C20DC21BE4F524F54BF53AF505
:100C3F003EF53FF544F545F55AF55BF540F554C2E1
:100C4F0005C211F558C213F559C201F53BC217F58C
:020C5F0025224C
:0E0E9800D218D207E4F524F54BC21EF55722FE
:10046700C105C106C116C118C102C119C10EC10B10
:1004770002300000C114C111C11301580001590015
:10048700C10DC18F012D00C11B014300013A0001BD
:10049700480002440000015400014000025A0000D5
:1004A700C10AC10CC101012400023E0000014B003A
:1004B700015600C110014200012900016100012F0E
:1004C7000002520000073200000000000000C108CF
:1004D700013900012E00014100C180015F00016068
:1004E70000014E00014C00025D0000C104014F00F5
:1004F700015C00012C00023C0000C11A014D000103
:100507003B00C117012500C103022A0000C11202E6
:10051700500000C1090128D3C115015500C11C02B3
:08052700260000C10701570086
:03000B00020026CA
:10002600C0E0C0F0C083C082C0D075D000C000C0A0
:1000360001C002C003C004C005C006C00785468CC7
:1000460085498A0553E55370020552C394D0E5529B
:1000560094074053755200755300301C1F0527E561
:1000660027700205269401E5269400400F7F0612AC
:10007600071B8E3C8F3D7526007527003015110530
:1000860055E555C3940A4008755500C215120E98D9
:10009600301E1420A5110557E557C3940F40087567
:1000A6005700C21E120E9830151B30A518E54F706A
:1000B600147F05FE120D4430A50B120DC0754F01BD
:1000C600755500C21520A522E54FB4011D20121A50
:1000D6002082177F057E00120D4420A50DAF3DAE90
:1000E6003C120534754F00120DEF3012190551E51B
:1000F6005170020550D394D0E55094074008C212BF
:10010600755000755100308003208702D2123011DD
:1001160021E558C39404501AD20520A503120E46B1
:100126000558E558C394044009755800C211C20524
:10013600C209301321E559C39404501AD20520A5EB
:1001460003120DD80559E559C394044009755900A1
:10015600C213C205C20920840302026D2083030272
:10016600026D20070302026DE524146031146070ED
:100176002402600302023530800320871B20051805
:10018600054BE54BC394025003020235754B0075CF
:100196002401120E24020235754B0002023530800E
:1001A60003208717053AE53AC394024011753A00D1
:1001B600752402754800120E358003753A00053F16
:1001C600E53F7002053EC394A0E53E940F4060757E
:1001D6002400753A00754B00753E00753F00804F50
:1001E6003080032087140540E540C39401400E7516
:1001F6004000D211D213D20980037540000545E5AF
:100206004570020544C394A0E544940F402175242B
:1002160000754B00753A00753E00753F0075440049
:10022600754500755A03755B2075400075540020AE
:100236008118E53BC394335011053BE53B943240AE
:1002460016D211D213753B33800D30810A2009076F
:10025600753B00C211C213C3E53D9466E53C9400AC
:10026600500520A502D21730183E208412054CE511
:100276004CB40A15D21BC20D20040ED201800AC24C
:100286001B756100754C00C201208312054EE54EB8
:10029600B40A15D20DC21B20040ED201800AC20D6B
:1002A600752F00754E00C20130013C055EE55E709B
:1002B60002055DC394A0E55D940F402BC201755DF8
:1002C60000755E00D204752400754B00753A007502
:1002D6003E00753F00754400754500755A03755B11
:1002E60020754000755400308703208020D3E52B0D
:1002F6009488E52A941340157F037E00120D44303E
:100306008703208008D203752A00752B00052BE58C
:100316002B7002052AC39488E52A94134008752A8F
:1003260013752B89C203D007D006D005D004D0039D
:10033600D002D001D000D0D0D082D083D0F0D0E08F
:010346003284
:030023000205EAE9
:1005EA00C0E0C0F0C083C082C0D075D000C000C0D7
:1005FA0001C002C003C004C005C006C00730986A23
:10060A00C29874322539F8A699E5397009E532702D
:10061A00057539018054E539B40109E5337005756A
:10062A0039028046E539B40209E5347005753903A3
:10063A008038E539B4030AE535B4230575390480F1
:10064A0029E539B4040AE536B4F005753905801A86
:10065A00E539B40512E537B5280D753900D2157597
:10066A005500120C2F8003753900D007D006D0052B
:10067A00D004D003D002D001D000D0D0D082D08311
:05068A00D0F0D0E032C9
:100CB9007E007C2B7D3312042EE47B0CFAF9F812AA
:100CC900039C8F0B8E0A8D098C08C3E49FFFE49E59
:090CD900F5468F49758921D28C82
:010CE20022EF
:040EAE004387012253
:04052F00C11DC11E0B
:100DEF002082FD120E8A120D27D21E7F147E000262
:020DFF000D44A1
:100DC000120E79120E57AF3DAE3C1205341209C611
:080DD000E4F556D21C020C2FC1
:100E010053A2BF75985A758920758BFD758DFDD2DA
:020E11008E222F
:080EA6008F993099FDC29922D9
:100CE3008B628A638964AF051DEF6017AB6205648D
:100CF300E564AA637002056314F9120347FF120E39
:040D0300A680E322C1
:10069B00020AB5E493A3F8E493A34003F68001F2B6
:1006AB0008DFF48029E493A3F85407240CC8C33360
:1006BB00C4540F4420C8834004F456800146F6DF2F
:1006CB00E4800B010204081020408090045BE47E60
:1006DB00019360BCA3FF543F30E509541FFEE49324
:1006EB00A360010ECF54C025E060A840B8E493A3EB
:1006FB00FAE493A3F8E493A3C8C582C8CAC583CA16
:10070B00F0A3C8C582C8CAC583CADFE9DEE780BECD
:0105330000C7
:10034700BB010689828A83E0225002E722BBFE02B4
:09035700E32289828A83E49322E7
:1003600075F008758200EF2FFFEE33FECD33CDCC54
:1003700033CCC58233C5829BED9AEC99E5829840D7
:100380000CF582EE9BFEED9AFDEC99FC0FD5F0D6B4
:10039000E4CEFBE4CDFAE4CCF9A88222B800C1B9DE
:1003A0000059BA002DEC8BF084CFCECDFCE5F0CB1C
:1003B000F97818EF2FFFEE33FEED33FDEC33FCEB55
:1003C00033FB10D703994004EB99FB0FD8E5E4F910
:1003D000FA227818EF2FFFEE33FEED33FDEC33FCFD
:1003E000C933C910D7059BE99A4007EC9BFCE99AF1
:1003F000F90FD8E0E4C9FAE4CCFB2275F010EF2F36
:10040000FFEE33FEED33FDCC33CCC833C810D70735
:100410009BEC9AE899400AED9BFDEC9AFCE899F870
:0E0420000FD5F0DAE4CDFBE4CCFAE4C8F92203
:10042E00EC8EF0A4CCC5F0CCCDF8EFA4CEC5F02D5B
:10043E00FDE43CFCE8A42EC8C5F03DFDE43CFCEF19
:0D044E00A4FFE5F028FEE43DFDE43CFC22A7
:00000001FF
