:0300000002064AAB
:0C064A00787FE4F6D8FD75816F02069100
:1006D600E4FAEF6405703343F620C2F8C2F9D2FAA1
:1006E60043E180C2FCD2FBADF8EDC413135403FD05
:1006F600AFE2AB07EB7E007802C333CE33CED8F938
:100706007C002DFBEC3EAF03FE22EF640670344303
:10071600F640D2F8C2F9D2FA43E180C2FCD2FBAD70
:10072600F8EDC413135403FDAFE27A00AB07EB7E7A
:10073600007802C333CE33CED8F97C002DFBEC3ED5
:03074600FEAF0300
:01074900228D
:100D4B0075DCC075630075641DE563F5D1E564F56D
:020D5B00D9229B
:100A4800EF1460191460251460312403703B75633A
:100A58000075640DE563F5D2E564F5DA2275630186
:100A6800756400E563F5D3E564F5DB22756300750D
:100A78006480E563F5D5E564F5DD2275630075648A
:0A0A880040E563F5D6E564F5DE22D3
:08000300E4FF120A48020D4B54
:03043400016F0154
:020BD1008F147F
:100BD300C2A07F647E00120C66D2A07F967E0012B4
:100BE3000C66E4F515E515C395145016D2A17F14D0
:100BF3007E00120D07C2A17F147E00120D0705159A
:020C030080E38C
:010C050022CC
:100CBE00C294C2A1C2A07F5E7E01120D07D2A07F98
:090CCE005E7E01120D07D2942292
:1009F300E56F24FE602F04704BD2947F0E120BD14F
:100A03007F1E7E00120CA37F12120BD17F1E7E006D
:100A1300120CA37F0B120BD17F327E00120CA3C2E8
:100A230094756F0222D2947F0E120BD17F197E0030
:100A3300120CA37F0C120BD17F327E00120CA3C2C7
:050A430094756F012213
:100D5D00D2947F06120BD17F3C7E00120CA3C2945D
:010D6D002263
:100D6E00D2947F02120BD17F3C7E00120CA3C29450
:010D7E002252
:100D7F00D2947F1B120BD17F557E00120CA3C2940D
:010D8F002241
:100D9000D2947F03120BD17FA07E00120CA3C294C9
:010DA0002230
:100D1F00D2947F16120BD17FA07E00120CA3C29427
:070D2F007F147E00020CA3FB
:100DA100D2947F17120BD17F327E00120CA3C29412
:010DB100221F
:100C8600D2947F18120BD17F327E00120CA37F0DF7
:0D0C9600120BD17F467E00120CA3C29422E7
:100DB200D2947F13120BD17F507E00120CA3C294E7
:010DC200220E
:100C06007D647C007F0112074AC2A5C216120CBE83
:100C1600C294D284D283D290C20FD287D20AD2A7EC
:100C2600C293755206D2A2D2A3D2A6D211D28512EF
:040C3600000E80FB31
:100CA300EF1FAA0670011E4A60107C137D88ED1D9C
:0A0CB300AA0470011C4A60E880F4F6
:010CBD002214
:100CD700E4FDFCC3ED9FEC9E500DE4FB0BBB15FC44
:070CE7000DBD00010C80ECC3
:010CEE0022E3
:100CEF00E4FDFCC3ED9FEC9E500DE4FB0BBB1AFC27
:070CFF000DBD00010C80ECAB
:010D060022CA
:100C6600E4FDFCC3ED9FEC9E5015E4FBFA0BBB00C4
:0F0C7600010AEB64644A70F50DBD00010C80E4C7
:010C8500224C
:100D0700E4FDFCC3ED9FEC9E500DE4FB0BBB04FC24
:070D17000DBD00010C80EC92
:010D1E0022B2
:100C3A00E4FDE4FEFF0FBF00010EBE0BF8BFB8F5DE
:100C4A000DBD32EEE4FD309212E4FEFF0FBF00014B
:0B0C5A000EBE27F8BF10F50DBD32EBF9
:010C6500226C
:090437000716000000000000009F
:100A9200751FAAE4F51EE4F51DE51FC2907F507E86
:100AA20000120CD7D290E51F25E0F51F7F967E003D
:100AB200120CD7051DE51DC3940840DD751FAA7FE2
:100AC200507E00120CD7051EE51EC3940340C7D208
:010AD2009093
:010AD3002200
:100AD400755FAAE4F55EE4F55DE55FC2907F507E44
:100AE40000120CD7D290E55F25E0F55F7F967E007B
:100AF400120CD7055DE55DC3940840DD755FAA7FE0
:100B0400507E00120CD7055EE55EC3940340C7D245
:010B14009050
:010B150022BD
:100B16007562AAE4F561E4F560E562C2907F507EF5
:100B260000120CD7D290E56225E0F5627F967E0032
:100B3600120CD70560E560C3940840DD7562AA7F94
:100B4600507E00120CD70561E561C3940340C7D2FD
:010B5600900E
:010B5700227B
:1007BC00D293D2A6C2A77516C87517E07518C112C8
:1007CC000AD4E4F565E4F56674162565F8E630E7B9
:1007DC0006C2907F788004C2907F507E00120CEF8E
:1007EC00D29074162565F8C000E625E0D000F67F9F
:1007FC00327E00120CEF0566E566C3940840C9050D
:0E080C0065E565C3940340BDD2A7C293D2A692
:01081A0022BB
:10081B00D293C2A6C2A77516C87517E07518C21277
:10082B000AD4E4F567E4F56874162567F8E630E753
:10083B0006C2907F788004C2907F507E00120CEF2E
:10084B00D29074162567F8C000E625E0D000F67F3D
:10085B00327E00120CEF0568E568C3940840C905A9
:0E086B0067E567C3940340BDD2A7D2A6C2932F
:01087900225C
:10087A00D293C2A6C2A77516C87517E07518C31217
:10088A000A92E4F569E4F56A74162569F8E630E730
:10089A0006C2907F788004C2907F507E00120CEFCF
:1008AA00D29074162569F8C000E625E0D000F67FDC
:1008BA00327E00120CEF056AE56AC3940840C90546
:0E08CA0069E569C3940340BDD2A7D2A6C293CC
:0108D80022FD
:1008D900D293C2A6C2A77516C87517E07518C412B7
:1008E9000B16E4F56BE4F56C7416256BF8E630E746
:1008F90006C2907F788004C2907F507E00120CEF70
:10090900D2907416256BF8C000E625E0D000F67F7A
:10091900327E00120CEF056CE56CC3940840C905E2
:0E0929006BE56BC3940340BDD2A7D2A6C29368
:01093700229D
:10093800D293C2A6C2A77516C87517E07518C51256
:100948000B16E4F56DE4F56E7416256DF8E630E7E0
:1009580006C2907F788004C2907F507E00120CEF10
:10096800D2907416256DF8C000E625E0D000F67F19
:10097800327E00120CEF056EE56EC3940840C9057F
:0E0988006DE56DC3940340BDD2A7D2A6C29305
:01099600223E
:1009970020910D055BE55BB47803E4F55BC20022AB
:1009A700200038D200E55BD394234012E55BD39453
:1009B70050500BE52B25E0F52B532BFE8010E55B04
:1009C700D394504010E52B25E0F52B432B01053E32
:1009D700E4F55A8002055AE4F55B22055AE55AC345
:0C09E700943C4007E4F53ED200F53622B7
:100B9A00E53E64087030F53E742F2536F8A62BE53D
:100BAA00367009E52FB4C80475360122E536B4015A
:100BBA0009E530B4E00475360222E536B40204D2FF
:070BCA00078000E4F536226C
:1004F6008E128F13C3E5139404E5129403400BD2B6
:10050600947F1C120BD17F32807EC3E51294035078
:1005160016C3E51394E5E5129402400BD2947F0AC4
:10052600120BD17F508061C3E51394E0E51294026B
:100536005016C3E51394D2E5129402400BD2947F71
:1005460009120BD17F508040C3E51394D0E5129475
:10055600025016C3E51394BEE5129402400BD294E2
:100566007F08120BD17F50801FC3E51394BAE512A2
:100576009402501CC3E51394A9E51294024011D2CB
:10058600947F07120BD17F507E00120CA3C29422D7
:10059600C3E51394A4E51294025008E54CB4010394
:0405A600120D5D22B3
:0E0DC300C2A2D2A3120C3AD2A2D2A3C285229F
:0E0DD100D285D2A2C2A3120C3AD2A2D2A32281
:10044000C105C106C114C116C102C117C10DC10A3F
:10045000022D0000C113C110C1120153000154004C
:10046000C10CC18E012A00C11901400001370001F1
:10047000450002410000015100013D00025500000D
:10048000C109C10BC101012400023B000001480069
:10049000015200C10F013F00012600015C00012C48
:1004A00000024F0000072F00000000000000C107FD
:1004B000013600012B00013E00C180015A00015BA2
:1004C00000014B0001490002580000C104014C002A
:1004D00001570001290002390000C118014A00013A
:1004E0003800C115012500C10302270000C1110217
:0504F0004D0000C108F1
:03000B0002001ED2
:10001E00C0E0C0F0C083C082C0D075D000C000C0A8
:10002E0001C002C003C004C005C006C00785438CD2
:10003E0085468A0550E5507002054FC394D0E54FB2
:10004E009407400F754F007550007F061206D68E2E
:10005E00398F3A30A413E54C700F7F05FE120CA3B6
:10006E0030A406120B58754C0120A41FE54CB401A8
:10007E001A2011177F057E00120CA320A40DAF3A93
:10008E00AE391204F6754C00120D36301119054EAC
:10009E00E54E7002054DD394D0E54D94074008C24D
:1000AE0011754D00754E00308003208702D211303D
:1000BE001021E553C39404501AD20520A403120D47
:1000CE00900553E553C394044009755300C210C202
:1000DE0005C208301221E554C39404501AD20520EB
:1000EE00A403120D1F0554E554C39404400975541E
:1000FE0000C212C205C20830010302021020A5037D
:10010E00020210E5241460311460702402600302B0
:10011E0001D830800320871B2005180548E548C309
:10012E00940250030201D8754800752401120D6E19
:10013E000201D87548000201D830800320871705C8
:10014E0037E537C3940240117537007524027545A3
:10015E0000120D7F8003753700053CE53C700205EB
:10016E003BC394A0E53B940F4060752400753700A7
:10017E00754800753B00753C00804F30800320872A
:10018E0014053DE53DC39402400E753D00D210D2DC
:10019E0012D2088003753D000542E542700205410A
:1001AE00C394A0E541940F40217524007548007555
:1001BE003700753B00753C00754100754200755562
:1001CE0003755620753D00755100208118E538C322
:1001DE00943350110538E53894324016D210D212AD
:1001EE00753833800D30810A200807753800C2102B
:1001FE00C212C3E53A9466E5399400500520A40274
:10020E00D21530163E2084120549E549B40A15D29E
:10021E0019C20C20040ED201800AC219755C007539
:10022E004900C201208312054BE54BB40A15D20CCE
:10023E00C21920040ED201800AC20C752C00754B17
:10024E0000C20130013C0559E55970020558C394AE
:10025E00A0E558940F402BC201755800755900D275
:10026E0004752400754800753700753B00753C0019
:10027E00754100754200755503755620753D007524
:10028E005100308703208020D3E5289488E52794F9
:10029E001340157F037E00120CA3308703208008C5
:1002AE00D2037527007528000528E528700205275A
:1002BE00C39488E52794134008752713752889C2BF
:1002CE0003D007D006D005D004D003D002D001D081
:0C02DE0000D0D0D082D083D0F0D0E0322D
:03001B000205AA31
:1005AA00C0E0C0F0C083C082C0D075D000C000C017
:1005BA0001C002C003C004C005C006C00785448D3F
:1005CA0085478B120997120B9A300759C207E531F2
:1005DA00243F7051E552D39406500330A405D21833
:1005EA00755200752A00C2A5C216C20CC21975241A
:1005FA0000754800753700753B00753C0075410071
:10060A00754200755500755600753D00755100C25A
:10061A0005C210755300C212755400C20175380024
:10062A00C215752500D007D006D005D004D003D056
:10063A0002D001D000D0D0D082D083D0F0D0E03226
:04074A008C088D0981
:10074E007E007C2B7D33120407E47B0CFAF9F81241
:10075E0003758F0D8E0C8D0B8C0AC3E49FFFE49EE8
:10076E00F5438F46AE08AF09EE3395E0FDFCE47B12
:10077E000BFAF9F81202EAE47B0CFAF9F812037597
:10078E008F118E108D0F8C0EC3E49FFFE49EF544E7
:10079E008F4775891185438C85468A85448D85479B
:0D07AE008BD2A9D28CD2ABD28ED2BBD2AFEF
:0107BB00221B
:04000E004387012201
:100D3600120DD1120C86D216D2A5E4F524F5487F01
:050D460014FE020CA3E5
:100B5800120DC3120DA1AF3AAE391204F61209F301
:100B6800E4F552C216C2A5C20CC219F524F548F51F
:100B780037F53BF53CF541F542F555F556F53DF5AC
:100B880051C205C210F553C212F554C201F538C25C
:020B9800082231
:10065600020C06E493A3F8E493A34003F68001F2A8
:1006660008DFF48029E493A3F85407240CC8C333A5
:10067600C4540F4420C8834004F456800146F6DF74
:10068600E4800B0102040810204080900434E47ECC
:10069600019360BCA3FF543F30E509541FFEE49369
:1006A600A360010ECF54C025E060A840B8E493A330
:1006B600FAE493A3F8E493A3C8C582C8CAC583CA5B
:1006C600F0A3C8C582C8CAC583CADFE9DEE780BE13
:0104F5000006
:1002EA00E88FF0A4CC8BF0A42CFCE98EF0A42CFCB3
:1002FA008AF0EDA42CFCEA8EF0A4CDA8F08BF0A431
:10030A002DCC3825F0FDE98FF0A42CCD35F0FCEB8F
:10031A008EF0A4FEA9F0EB8FF0A4CFC5F02ECD3954
:0F032A00FEE43CFCEAA42DCE35F0FDE43CFC22C1
:1003390075F008758200EF2FFFEE33FECD33CDCC7B
:1003490033CCC58233C5829BED9AEC99E5829840FE
:100359000CF582EE9BFEED9AFDEC99FC0FD5F0D6DB
:10036900E4CEFBE4CDFAE4CCF9A88222B800C1B905
:100379000059BA002DEC8BF084CFCECDFCE5F0CB43
:10038900F97818EF2FFFEE33FEED33FDEC33FCEB7C
:1003990033FB10D703994004EB99FB0FD8E5E4F937
:1003A900FA227818EF2FFFEE33FEED33FDEC33FC24
:1003B900C933C910D7059BE99A4007EC9BFCE99A18
:1003C900F90FD8E0E4C9FAE4CCFB2275F010EF2F5D
:1003D900FFEE33FEED33FDCC33CCC833C810D7075D
:1003E9009BEC9AE899400AED9BFDEC9AFCE899F898
:0E03F9000FD5F0DAE4CDFBE4CCFAE4C8F9222B
:10040700EC8EF0A4CCC5F0CCCDF8EFA4CEC5F02D82
:10041700FDE43CFCE8A42EC8C5F03DFDE43CFCEF40
:0D042700A4FFE5F028FEE43DFDE43CFC22CE
:00000001FF
