:03000000020645B0
:0C064500787FE4F6D8FD75816F02068C0A
:1006D100E4FAEF6405703343F620C2F8C2F9D2FAA6
:1006E10043E180C2FCD2FBADF8EDC413135403FD0A
:1006F100AFE2AB07EB7E007802C333CE33CED8F93D
:100701007C002DFBEC3EAF03FE22EF640670344308
:10071100F640D2F8C2F9D2FA43E180C2FCD2FBAD75
:10072100F8EDC413135403FDAFE27A00AB07EB7E7F
:10073100007802C333CE33CED8F97C002DFBEC3EDA
:03074100FEAF0305
:010744002292
:100D480075DCC075630075641DE563F5D1E564F570
:020D5800D9229E
:100A4300EF1460191460251460312403703B75633F
:100A53000075640DE563F5D2E564F5DA227563018B
:100A6300756400E563F5D3E564F5DB227563007512
:100A73006480E563F5D5E564F5DD2275630075648F
:0A0A830040E563F5D6E564F5DE22D8
:08000300E4FF120A43020D485C
:03043400016F0154
:020C02008F144D
:100C0400C2A07F647E00120C63D2A07F967E001285
:100C14000C63E4F515E515C395145016D2A17F14A1
:100C24007E00120D04C2A17F147E00120D0405156E
:020C340080E35B
:010C3600229B
:100CBB00C294C2A1C2A07F5E7E01120D04D2A07F9E
:090CCB005E7E01120D04D2942298
:1009EE00E56F24FE602F04704BD2947F0E120C0222
:1009FE007F1E7E00120CA07F12120C027F1E7E0044
:100A0E00120CA07F0B120C027F327E00120CA0C2C1
:100A1E0094756F0222D2947F0E120C027F197E0003
:100A2E00120CA07F0C120C027F327E00120CA0C2A0
:050A3E0094756F012218
:100D5A00D2947F06120C027F3C7E00120CA0C29431
:010D6A002266
:100D6B00D2947F02120C027F3C7E00120CA0C29424
:010D7B002255
:100D7C00D2947F1B120C027F557E00120CA0C294E1
:010D8C002244
:100D8D00D2947F03120C027FA07E00120CA0C2949D
:010D9D002233
:100D1C00D2947F16120C027FA07E00120CA0C294FB
:070D2C007F147E00020CA001
:100D9E00D2947F17120C027F327E00120CA0C294E6
:010DAE002222
:100C8300D2947F18120C027F327E00120CA07F0DCB
:0D0C9300120C027F467E00120CA0C29422BB
:100DAF00D2947F13120C027F507E00120CA0C294BB
:010DBF002211
:100BCC007D647C007F01120745C2A5C216120CBBC6
:100BDC00C294D284D283D290C20FD287D20AD2A727
:100BEC00C293755206D2A2D2A3D2A6D211C281D27E
:060BFC008512000E80FBD3
:100CA000EF1FAA0670011E4A60107C137D88ED1D9F
:0A0CB000AA0470011C4A60E880F4F9
:010CBA002217
:100CD400E4FDFCC3ED9FEC9E500DE4FB0BBB15FC47
:070CE4000DBD00010C80ECC6
:010CEB0022E6
:100CEC00E4FDFCC3ED9FEC9E500DE4FB0BBB1AFC2A
:070CFC000DBD00010C80ECAE
:010D030022CD
:100C6300E4FDFCC3ED9FEC9E5015E4FBFA0BBB00C7
:0F0C7300010AEB64644A70F50DBD00010C80E4CA
:010C8200224F
:100D0400E4FDFCC3ED9FEC9E500DE4FB0BBB04FC27
:070D14000DBD00010C80EC95
:010D1B0022B5
:100C3700E4FDE4FEFF0FBF00010EBE0BF8BFB8F5E1
:100C47000DBD32EEE4FD309212E4FEFF0FBF00014E
:0B0C57000EBE27F8BF10F50DBD32EBFC
:010C6200226F
:090437000716000000000000009F
:100A8D00751FAAE4F51EE4F51DE51FC2907F507E8B
:100A9D0000120CD4D290E51F25E0F51F7F967E0045
:100AAD00120CD4051DE51DC3940840DD751FAA7FEA
:100ABD00507E00120CD4051EE51EC3940340C7D210
:010ACD009098
:010ACE002205
:100ACF00755FAAE4F55EE4F55DE55FC2907F507E49
:100ADF0000120CD4D290E55F25E0F55F7F967E0083
:100AEF00120CD4055DE55DC3940840DD755FAA7FE8
:100AFF00507E00120CD4055EE55EC3940340C7D24E
:010B0F009055
:010B100022C2
:100B11007562AAE4F561E4F560E562C2907F507EFA
:100B210000120CD4D290E56225E0F5627F967E003A
:100B3100120CD40560E560C3940840DD7562AA7F9C
:100B4100507E00120CD40561E561C3940340C7D205
:010B51009013
:010B52002280
:1007B700D293D2A6C2A77516C87517E07518C112CD
:1007C7000ACFE4F565E4F56674162565F8E630E7C3
:1007D70006C2907F788004C2907F507E00120CEC96
:1007E700D29074162565F8C000E625E0D000F67FA4
:1007F700327E00120CEC0566E566C3940840C90515
:0E08070065E565C3940340BDD2A7C293D2A697
:0108150022C0
:10081600D293C2A6C2A77516C87517E07518C2127C
:100826000ACFE4F567E4F56874162567F8E630E75D
:1008360006C2907F788004C2907F507E00120CEC36
:10084600D29074162567F8C000E625E0D000F67F42
:10085600327E00120CEC0568E568C3940840C905B1
:0E08660067E567C3940340BDD2A7D2A6C29334
:010874002261
:10087500D293C2A6C2A77516C87517E07518C3121C
:100885000A8DE4F569E4F56A74162569F8E630E73A
:1008950006C2907F788004C2907F507E00120CECD7
:1008A500D29074162569F8C000E625E0D000F67FE1
:1008B500327E00120CEC056AE56AC3940840C9054E
:0E08C50069E569C3940340BDD2A7D2A6C293D1
:0108D3002202
:1008D400D293C2A6C2A77516C87517E07518C412BC
:1008E4000B11E4F56BE4F56C7416256BF8E630E750
:1008F40006C2907F788004C2907F507E00120CEC78
:10090400D2907416256BF8C000E625E0D000F67F7F
:10091400327E00120CEC056CE56CC3940840C905EA
:0E0924006BE56BC3940340BDD2A7D2A6C2936D
:0109320022A2
:10093300D293C2A6C2A77516C87517E07518C5125B
:100943000B11E4F56DE4F56E7416256DF8E630E7EA
:1009530006C2907F788004C2907F507E00120CEC18
:10096300D2907416256DF8C000E625E0D000F67F1E
:10097300327E00120CEC056EE56EC3940840C90587
:0E0983006DE56DC3940340BDD2A7D2A6C2930A
:010991002243
:1009920020910D055BE55BB47803E4F55BC20022B0
:1009A200200038D200E55BD394234012E55BD39458
:1009B20050500BE52B25E0F52B532BFE8010E55B09
:1009C200D394504010E52B25E0F52B432B01053E37
:1009D200E4F55A8002055AE4F55B22055AE55AC34A
:0C09E200943C4007E4F53ED200F53622BC
:100B9500E53E64087030F53E742F2536F8A62BE542
:100BA500367009E52FB4C80475360122E536B4015F
:100BB50009E530B4E00475360222E536B40204D204
:070BC500078000E4F5362271
:1004F6008E128F13C3E5139404E5129403400BD2B6
:10050600947F1C120C027F32807EC3E51294035046
:1005160016C3E51394E5E5129402400BD2947F0AC4
:10052600120C027F508061C3E51394E0E512940239
:100536005016C3E51394D2E5129402400BD2947F71
:1005460009120C027F508040C3E51394D0E5129443
:10055600025016C3E51394BEE5129402400BD294E2
:100566007F08120C027F50801FC3E51394BAE51270
:100576009402501CC3E51394A9E51294024011D2CB
:10058600947F07120C027F507E00120CA0C29422A8
:0F059600C3E51394A4E51294025003120D5A22E8
:0E0DC000C2A2D2A3120C37D2A2D2A3C28522A5
:0E0DCE00D285D2A2C2A3120C37D2A2D2A32287
:10044000C105C106C114C116C102C117C10DC10A3F
:10045000022D0000C113C110C1120153000154004C
:10046000C10CC18E012A00C11901400001370001F1
:10047000450002410000015100013D00025500000D
:10048000C109C10BC101012400023B000001480069
:10049000015200C10F013F00012600015C00012C48
:1004A00000024F0000072F00000000000000C107FD
:1004B000013600012B00013E00C180015A00015BA2
:1004C00000014B0001490002580000C104014C002A
:1004D00001570001290002390000C118014A00013A
:1004E0003800C115012500C10302270000C1110217
:0504F0004D0000C108F1
:03000B0002001ED2
:10001E00C0E0C0F0C083C082C0D075D000C000C0A8
:10002E0001C002C003C004C005C006C00785438CD2
:10003E0085468A0550E5507002054FC394D0E54FB2
:10004E009407400F754F007550007F061206D18E33
:10005E00398F3A30A413E54C700F7F05FE120CA0B9
:10006E0030A406120B53754C0120A41FE54CB401AD
:10007E001A2011177F057E00120CA020A40DAF3A96
:10008E00AE391204F6754C00120D33301119054EAF
:10009E00E54E7002054DD394D0E54D94074008C24D
:1000AE0011754D00754E00308003208702D211303D
:1000BE001021E553C39404501AD20520A403120D47
:1000CE008D0553E553C394044009755300C210C205
:1000DE0005C208301221E554C39404501AD20520EB
:1000EE00A403120D1C0554E554C394044009755421
:1000FE0000C212C205C20830010302021020A5037D
:10010E00020210E5241460311460702402600302B0
:10011E0001D830800320871B2005180548E548C309
:10012E00940250030201D8754800752401120D6B1C
:10013E000201D87548000201D830800320871705C8
:10014E0037E537C3940240117537007524027545A3
:10015E0000120D7C8003753700053CE53C700205EE
:10016E003BC394A0E53B940F4060752400753700A7
:10017E00754800753B00753C00804F30800320872A
:10018E0014053DE53DC39402400E753D00D210D2DC
:10019E0012D2088003753D000542E542700205410A
:1001AE00C394A0E541940F40217524007548007555
:1001BE003700753B00753C00754100754200755562
:1001CE0003755620753D00755100208118E538C322
:1001DE00943350110538E53894324016D210D212AD
:1001EE00753833800D30810A200807753800C2102B
:1001FE00C212C3E53A9466E5399400500520A40274
:10020E00D21530163E2084120549E549B40A15D29E
:10021E0019C20C20040ED201800AC219755C007539
:10022E004900C201208312054BE54BB40A15D20CCE
:10023E00C21920040ED201800AC20C752C00754B17
:10024E0000C20130013C0559E55970020558C394AE
:10025E00A0E558940F402BC201755800755900D275
:10026E0004752400754800753700753B00753C0019
:10027E00754100754200755503755620753D007524
:10028E005100308703208020D3E5289488E52794F9
:10029E001340157F037E00120CA0308703208008C8
:1002AE00D2037527007528000528E528700205275A
:1002BE00C39488E52794134008752713752889C2BF
:1002CE0003D007D006D005D004D003D002D001D081
:0C02DE0000D0D0D082D083D0F0D0E0322D
:03001B000205A536
:1005A500C0E0C0F0C083C082C0D075D000C000C01C
:1005B50001C002C003C004C005C006C00785448D44
:1005C50085478B120992120B95300759C207E53101
:1005D500243F7051E552D39406500330A405D21838
:1005E500755200752A00C2A5C216C20CC21975241F
:1005F50000754800753700753B00753C0075410076
:10060500754200755500755600753D00755100C25F
:1006150005C210755300C212755400C20175380029
:10062500C215752500D007D006D005D004D003D05B
:1006350002D001D000D0D0D082D083D0F0D0E0322B
:040745008C088D0986
:100749007E007C2B7D33120407E47B0CFAF9F81246
:1007590003758F0D8E0C8D0B8C0AC3E49FFFE49EED
:10076900F5438F46AE08AF09EE3395E0FDFCE47B17
:100779000BFAF9F81202EAE47B0CFAF9F81203759C
:100789008F118E108D0F8C0EC3E49FFFE49EF544EC
:100799008F4775891185438C85468A85448D8547A0
:0D07A9008BD2A9D28CD2ABD28ED2BBD2AFF4
:0107B6002220
:04000E004387012201
:100D3300120DCE120C83D216D2A5E4F524F5487F0A
:050D430014FE020CA0EB
:100B5300120DC0120D9EAF3AAE391204F61209EE11
:100B6300E4F552C216C2A5C20CC219F524F548F524
:100B730037F53BF53CF541F542F555F556F53DF5B1
:100B830051C205C210F553C212F554C201F538C261
:020B9300082236
:10065100020BCCE493A3F8E493A34003F68001F2E8
:1006610008DFF48029E493A3F85407240CC8C333AA
:10067100C4540F4420C8834004F456800146F6DF79
:10068100E4800B0102040810204080900434E47ED1
:10069100019360BCA3FF543F30E509541FFEE4936E
:1006A100A360010ECF54C025E060A840B8E493A335
:1006B100FAE493A3F8E493A3C8C582C8CAC583CA60
:1006C100F0A3C8C582C8CAC583CADFE9DEE780BE18
:0104F5000006
:1002EA00E88FF0A4CC8BF0A42CFCE98EF0A42CFCB3
:1002FA008AF0EDA42CFCEA8EF0A4CDA8F08BF0A431
:10030A002DCC3825F0FDE98FF0A42CCD35F0FCEB8F
:10031A008EF0A4FEA9F0EB8FF0A4CFC5F02ECD3954
:0F032A00FEE43CFCEAA42DCE35F0FDE43CFC22C1
:1003390075F008758200EF2FFFEE33FECD33CDCC7B
:1003490033CCC58233C5829BED9AEC99E5829840FE
:100359000CF582EE9BFEED9AFDEC99FC0FD5F0D6DB
:10036900E4CEFBE4CDFAE4CCF9A88222B800C1B905
:100379000059BA002DEC8BF084CFCECDFCE5F0CB43
:10038900F97818EF2FFFEE33FEED33FDEC33FCEB7C
:1003990033FB10D703994004EB99FB0FD8E5E4F937
:1003A900FA227818EF2FFFEE33FEED33FDEC33FC24
:1003B900C933C910D7059BE99A4007EC9BFCE99A18
:1003C900F90FD8E0E4C9FAE4CCFB2275F010EF2F5D
:1003D900FFEE33FEED33FDCC33CCC833C810D7075D
:1003E9009BEC9AE899400AED9BFDEC9AFCE899F898
:0E03F9000FD5F0DAE4CDFBE4CCFAE4C8F9222B
:10040700EC8EF0A4CCC5F0CCCDF8EFA4CEC5F02D82
:10041700FDE43CFCE8A42EC8C5F03DFDE43CFCEF40
:0D042700A4FFE5F028FEE43DFDE43CFC22CE
:00000001FF
